{
  "_format": "hh-sol-artifact-1",
  "contractName": "PlonkVerifier",
  "sourceName": "contracts/Verifier.sol",
  "abi": [
    {
      "inputs": [
        {
          "internalType": "uint256[24]",
          "name": "_proof",
          "type": "uint256[24]"
        },
        {
          "internalType": "uint256[24]",
          "name": "_pubSignals",
          "type": "uint256[24]"
        }
      ],
      "name": "verifyProof",
      "outputs": [
        {
          "internalType": "bool",
          "name": "",
          "type": "bool"
        }
      ],
      "stateMutability": "view",
      "type": "function"
    }
  ],
  "bytecode": "0x6080604052348015600f57600080fd5b50611b428061001f6000396000f3fe608060405234801561001057600080fd5b506004361061002b5760003560e01c8063f6a13ede14610030575b600080fd5b61004a60048036038101906100459190611a94565b610060565b6040516100579190611af1565b60405180910390f35b60006119f9565b600080600184846000805b821561009c5782840591508482028603905084955080945082820284039050829350809250610072565b60018411156100aa57600080fd5b60008612156100b95788860195505b85965050505050505092915050565b60405181602084028301815160208301925060005b82841015610120578185527f30644e72e131a029b85045b68181585d2833e84879b9709143e1f593f00000018451830991506020850194506020840193506100dd565b61014a7f30644e72e131a029b85045b68181585d2833e84879b9709143e1f593f000000183610067565b91506020850394506020840393508592505b828411156101c6577f30644e72e131a029b85045b68181585d2833e84879b9709143e1f593f00000018551830990507f30644e72e131a029b85045b68181585d2833e84879b9709143e1f593f000000184518309915080845260208503945060208403935061015c565b81845250505050505050565b7f30644e72e131a029b85045b68181585d2833e84879b9709143e1f593f00000018110610203576000805260206000f35b50565b610212610244356101d2565b61021e610264356101d2565b61022a610284356101d2565b6102366102a4356101d2565b6102426102c4356101d2565b61024e6102e4356101d2565b565b6000806040517f11b70349cad35548380dc95d8bf500aedbdf9a5676a33afceffdaef10787874281527f0a5c6adf69ef25195996d9c2a468de4670972d881101c52b3a7c9218d858b51160208201527f10f4e166a021b1d2b62d6fb8f38737f5333e6ca13569e2def073a576129abc5f60408201527f283ca5b58b22819511c91c2bf0ed267705c25869658f929a77be74254774cd8760608201527f102abc00d9817da8aa5d586f504b0b50d8e3e45776f0c44f69d8483e1df8547f60808201527f2ff706864134d4735696f3a61cc6a94be608dc5a77e0fb6051a7ebe9209f098b60a08201527f1d8cb55bba239001372826601d654bcac602fa3103ac0b3082443624c3164db960c08201527f0629d952207fcc6036957655ddf80c32d4e084e9003e5ca765da5409e8fe2c5160e08201527f0ae5af85f1b3515d180fcce68b46e7dcd1870b7f1ac53a4d316f4be04310437c6101008201527f2c0f1acab33d9ab3091d832fb0410a58fa73ca7b96cb2d119cce3e8c9ce485a46101208201527f010961f1933580806310183002dd1fb2985d20693a9652d85baeffc644b87c396101408201527e98fca8023b8f9da6db324b4f5f8661dc723a2087a593883ab09298c33616126101608201527f1f214bab668fd6ae4f4318aab83280b6986c36116565af0f9ee76935f0359ccf6101808201527f2e7ad12e3b5e68e0a0677e5c8f290ba743e0121edcc12a50295120ddc34b0c9f6101a08201527f2cb89c1b7d8481464549009c6e1e225fd5c4cb7be54ad10c1fe50f95b91fa2216101c08201527f25fcc9cf1852aaa33b202edcd7a83979a528194640e736b5cf333064a1f9f94a6101e08201526004356102008201526020600401356102208201526044356102408201526020604401356102608201526084356102808201526020608401356102a08201527f30644e72e131a029b85045b68181585d2833e84879b9709143e1f593f00000016102c082200692508260208501527f30644e72e131a029b85045b68181585d2833e84879b9709143e1f593f0000001602080860120066040850152602084015181526040840151602082015260c4356040820152602060c4013560608201527f30644e72e131a029b85045b68181585d2833e84879b9709143e1f593f0000001608082200691508160008501527f30644e72e131a029b85045b68181585d2833e84879b9709143e1f593f00000018283096102c08501528181526101043560208201526020610104013560408201526101443560608201526020610144013560808201526101843560a08201526020610184013560c08201527f30644e72e131a029b85045b68181585d2833e84879b9709143e1f593f000000160e082200691508160608501528181526102443560208201526102643560408201526102843560608201526102a43560808201526102c43560a08201526102e43560c08201527f30644e72e131a029b85045b68181585d2833e84879b9709143e1f593f000000160e08220068060c08601527f30644e72e131a029b85045b68181585d2833e84879b9709143e1f593f000000183850960a08601527f30644e72e131a029b85045b68181585d2833e84879b9709143e1f593f000000183840992507f30644e72e131a029b85045b68181585d2833e84879b9709143e1f593f000000183840992507f30644e72e131a029b85045b68181585d2833e84879b9709143e1f593f000000183840992507f30644e72e131a029b85045b68181585d2833e84879b9709143e1f593f000000183840992507f30644e72e131a029b85045b68181585d2833e84879b9709143e1f593f000000183840992507f30644e72e131a029b85045b68181585d2833e84879b9709143e1f593f000000183840992507f30644e72e131a029b85045b68181585d2833e84879b9709143e1f593f000000183840992507f30644e72e131a029b85045b68181585d2833e84879b9709143e1f593f000000183840992507f30644e72e131a029b85045b68181585d2833e84879b9709143e1f593f000000183840992507f30644e72e131a029b85045b68181585d2833e84879b9709143e1f593f000000183840992508260808601527f30644e72e131a029b85045b68181585d2833e84879b9709143e1f593f0000001806001850301069250826102e0860152826103008601527f30644e72e131a029b85045b68181585d2833e84879b9709143e1f593f000000181820992508260e08601527f30644e72e131a029b85045b68181585d2833e84879b9709143e1f593f00000018184099250826101008601527f30644e72e131a029b85045b68181585d2833e84879b9709143e1f593f00000018184099250826101208601527f30644e72e131a029b85045b68181585d2833e84879b9709143e1f593f00000018184099250826101408601526101c435825260206101c4013560208301526102043560408301526020610204013560608301527f30644e72e131a029b85045b68181585d2833e84879b9709143e1f593f00000016080832006610160860152505050505050565b60017f30644e72e131a029b85045b68181585d2833e84879b9709143e1f593f0000001807f30644e72e131a029b85045b68181585d2833e84879b9709143e1f593f0000001836060860151030106610400096103208301526109fe600261030084016100c8565b6102e0820151600191507f30644e72e131a029b85045b68181585d2833e84879b9709143e1f593f00000018161032085015109610320840152505050565b600080610180830152505050565b6101808101517f30644e72e131a029b85045b68181585d2833e84879b9709143e1f593f00000016102c0830151610320840151097f30644e72e131a029b85045b68181585d2833e84879b9709143e1f593f0000001806102a43560208601510961024435087f30644e72e131a029b85045b68181585d2833e84879b9709143e1f593f00000016040850151820890507f30644e72e131a029b85045b68181585d2833e84879b9709143e1f593f0000001806102c43560208701510961026435087f30644e72e131a029b85045b68181585d2833e84879b9709143e1f593f00000016040860151820890507f30644e72e131a029b85045b68181585d2833e84879b9709143e1f593f0000001604086015161028435087f30644e72e131a029b85045b68181585d2833e84879b9709143e1f593f0000001817f30644e72e131a029b85045b68181585d2833e84879b9709143e1f593f0000001848609097f30644e72e131a029b85045b68181585d2833e84879b9709143e1f593f00000016102e435820990507f30644e72e131a029b85045b68181585d2833e84879b9709143e1f593f00000016000880151820990507f30644e72e131a029b85045b68181585d2833e84879b9709143e1f593f000000180867f30644e72e131a029b85045b68181585d2833e84879b9709143e1f593f0000001030687087f30644e72e131a029b85045b68181585d2833e84879b9709143e1f593f000000180837f30644e72e131a029b85045b68181585d2833e84879b9709143e1f593f0000001030682089050806101a08901525050505050505050565b81518152602082015160208201525050565b818152826020820152505050565b81358152602082013560208201525050565b6040518151815260208201516020820152825160408201526020830151606082015260408260808360066107d05a03fa80610d0d576000805260206000f35b50505050565b600060405183815284602082015285604082015260408160608360076107d05a03fa915081610d46576000805260206000f35b825160408201526020830151606082015260408360808360066107d05a03fa915081610d76576000805260206000f35b505050505050565b600060405183815284602082015285604082015260408360608360076107d05a03fa915081610db1576000805260206000f35b505050505050565b610dca836020840151845184610d7e565b505050565b6101c0810160408201516040516101008101604052610e2f7f2c0f1acab33d9ab3091d832fb0410a58fa73ca7b96cb2d119cce3e8c9ce485a47f0ae5af85f1b3515d180fcce68b46e7dcd1870b7f1ac53a4d316f4be04310437c85610cae565b610ea47f30644e72e131a029b85045b68181585d2833e84879b9709143e1f593f00000016102643561024435097f0a5c6adf69ef25195996d9c2a468de4670972d881101c52b3a7c9218d858b5117f11b70349cad35548380dc95d8bf500aedbdf9a5676a33afceffdaef10787874286610d13565b610ef3610244357f283ca5b58b22819511c91c2bf0ed267705c25869658f929a77be74254774cd877f10f4e166a021b1d2b62d6fb8f38737f5333e6ca13569e2def073a576129abc5f86610d13565b610f42610264357f2ff706864134d4735696f3a61cc6a94be608dc5a77e0fb6051a7ebe9209f098b7f102abc00d9817da8aa5d586f504b0b50d8e3e45776f0c44f69d8483e1df8547f86610d13565b610f91610284357f0629d952207fcc6036957655ddf80c32d4e084e9003e5ca765da5409e8fe2c517f1d8cb55bba239001372826601d654bcac602fa3103ac0b3082443624c3164db986610d13565b60a08401517f30644e72e131a029b85045b68181585d2833e84879b9709143e1f593f0000001837f30644e72e131a029b85045b68181585d2833e84879b9709143e1f593f0000001836102443508087f30644e72e131a029b85045b68181585d2833e84879b9709143e1f593f0000001847f30644e72e131a029b85045b68181585d2833e84879b9709143e1f593f000000180600286096102643508087f30644e72e131a029b85045b68181585d2833e84879b9709143e1f593f0000001857f30644e72e131a029b85045b68181585d2833e84879b9709143e1f593f000000180600387096102843508087f30644e72e131a029b85045b68181585d2833e84879b9709143e1f593f000000160008901517f30644e72e131a029b85045b68181585d2833e84879b9709143e1f593f0000001837f30644e72e131a029b85045b68181585d2833e84879b9709143e1f593f000000186880909097f30644e72e131a029b85045b68181585d2833e84879b9709143e1f593f00000016102c08a01516103208b01510961112660c460c08901610cbc565b61117f7f30644e72e131a029b85045b68181585d2833e84879b9709143e1f593f00000016101608c01517f30644e72e131a029b85045b68181585d2833e84879b9709143e1f593f00000018486080860c0890189610db9565b7f30644e72e131a029b85045b68181585d2833e84879b9709143e1f593f0000001887f30644e72e131a029b85045b68181585d2833e84879b9709143e1f593f0000001806102a43560208f01510961024435080894507f30644e72e131a029b85045b68181585d2833e84879b9709143e1f593f0000001887f30644e72e131a029b85045b68181585d2833e84879b9709143e1f593f0000001806102c43560208f01510961026435080893507f30644e72e131a029b85045b68181585d2833e84879b9709143e1f593f00000016102e4357f30644e72e131a029b85045b68181585d2833e84879b9709143e1f593f000000160208d015160008e0151090992506113147f30644e72e131a029b85045b68181585d2833e84879b9709143e1f593f0000001847f30644e72e131a029b85045b68181585d2833e84879b9709143e1f593f0000001878909097f25fcc9cf1852aaa33b202edcd7a83979a528194640e736b5cf333064a1f9f94a7f2cb89c1b7d8481464549009c6e1e225fd5c4cb7be54ad10c1fe50f95b91fa22160408b01610d7e565b61132361010460808901610cbc565b61133f60808b0151602061014401356101443560808b01610d13565b7f30644e72e131a029b85045b68181585d2833e84879b9709143e1f593f000000160808b015160808c01510961138381602061018401356101843560808c01610d13565b61139f6102e08c015160a08a015160808b015160808c01610d7e565b7f30644e72e131a029b85045b68181585d97816a916871ca8d3c208c16d87cfd47602060408a0101517f30644e72e131a029b85045b68181585d97816a916871ca8d3c208c16d87cfd470306602060408a0101527f30644e72e131a029b85045b68181585d97816a916871ca8d3c208c16d87cfd4760a08901517f30644e72e131a029b85045b68181585d97816a916871ca8d3c208c16d87cfd47030660a089015261144b888b610cce565b611458604089018b610cce565b611465608089018b610cce565b5050505050505050505050565b61020081016114856101c0830182610c9c565b61149c60c083015160206004013560043584610d13565b6114b360e083015160206044013560443584610d13565b6114cb61010083015160206084013560843584610d13565b61151b6101208301517e98fca8023b8f9da6db324b4f5f8661dc723a2087a593883ab09298c33616127f010961f1933580806310183002dd1fb2985d20693a9652d85baeffc644b87c3984610d13565b61156c6101408301517f2e7ad12e3b5e68e0a0677e5c8f290ba743e0121edcc12a50295120ddc34b0c9f7f1f214bab668fd6ae4f4318aab83280b6986c36116565af0f9ee76935f0359ccf84610d13565b5050565b7f30644e72e131a029b85045b68181585d2833e84879b9709143e1f593f00000016101a08201517f30644e72e131a029b85045b68181585d2833e84879b9709143e1f593f000000103067f30644e72e131a029b85045b68181585d2833e84879b9709143e1f593f00000018060c08401516102443509820890507f30644e72e131a029b85045b68181585d2833e84879b9709143e1f593f00000018060e08401516102643509820890507f30644e72e131a029b85045b68181585d2833e84879b9709143e1f593f0000001806101008401516102843509820890507f30644e72e131a029b85045b68181585d2833e84879b9709143e1f593f0000001806101208401516102a43509820890507f30644e72e131a029b85045b68181585d2833e84879b9709143e1f593f0000001806101408401516102c43509820890507f30644e72e131a029b85045b68181585d2833e84879b9709143e1f593f0000001806101608401516102e43509820890506116f081600260016102408601610d7e565b5050565b6000604051610240810160405261018081016101c08201610200830161171c6101c484610cbc565b61172861020483610cbc565b6117386101608701518386610db9565b6117428385610cce565b7f30644e72e131a029b85045b68181585d97816a916871ca8d3c208c16d87cfd4760208501517f30644e72e131a029b85045b68181585d97816a916871ca8d3c208c16d87cfd47030660208501527f26186a2d65ee4d2f9c9a5b91f86597d35f192cd120caf7e935d8443d1938e23d60408501527f30441fd1b5d3370482c42152a8899027716989a6996c2535bc9f7fee8aaef79e60608501527f1970ea81dd6992adfbc571effb03503adbbb6a857f578403c6c40e22d65b3c0260808501527f054793348f12c0cf5622c340573cb277586319de359ab9389778f689786b1e4860a085015261183a60608701518460c08701610db9565b7f30644e72e131a029b85045b68181585d2833e84879b9709143e1f593f00000016060870151610160880151097f30644e72e131a029b85045b68181585d2833e84879b9709143e1f593f00000017f06fd19c17017a420ebbebc2bb08771e339ba79c0a8d2d7ab11f995e1bc2e5912820990506118b8818484610db9565b6118c58260c08701610cce565b6118d6610200880160c08701610cce565b7f30644e72e131a029b85045b68181585d97816a916871ca8d3c208c16d87cfd476020610240018801517f30644e72e131a029b85045b68181585d97816a916871ca8d3c208c16d87cfd47030660206102400188015261193d610240880160c08701610cce565b7f198e9393920d483a7260bfb731fb5d25f1aa493335a9e71297e485b7aef312c26101008601527f1800deef121f1e76426a00665e5c4479674322d4f75edadd46debd5cd992f6ed6101208601527f090689d0585ff075ec9e99ad690c3395bc4b313370b38ef355acdadcd122975b6101408601527f12c85ea5db8c6deb4aab71808dcb408fe3d1e7690c43d37b4ce6cc0166fa7daa6101608601526020856101808760086107d05a03fa855181169650505050505050919050565b6040516103408101604052611a0c610206565b611a168382610250565b611a1f81610997565b611a298382610a3c565b611a3281610a4a565b611a3b81610dcf565b611a4481611472565b611a4d81611570565b611a56816116f4565b61034082036040528060005260206000f35b600080fd5b600080fd5b600081905082602060180282011115611a8e57611a8d611a6d565b5b92915050565b6000806106008385031215611aac57611aab611a68565b5b6000611aba85828601611a72565b925050610300611acc85828601611a72565b9150509250929050565b60008115159050919050565b611aeb81611ad6565b82525050565b6000602082019050611b066000830184611ae2565b9291505056fea264697066735822122035b75cac8701fa906c4f0da31f1f0ce1ac120b8e60e90002848abe51c25a786c64736f6c634300081c0033",
  "linkReferences": {},
  "deployedLinkReferences": {}
}