{
  "_format": "hh-sol-artifact-1",
  "contractName": "Scoreboard",
  "sourceName": "contracts/scoreboard.sol",
  "abi": [
    {
      "inputs": [
        {
          "internalType": "address",
          "name": "_verifier",
          "type": "address"
        },
        {
          "internalType": "uint256",
          "name": "_N",
          "type": "uint256"
        },
        {
          "internalType": "uint256",
          "name": "_basePoints",
          "type": "uint256"
        },
        {
          "internalType": "uint256",
          "name": "_finalBonus",
          "type": "uint256"
        },
        {
          "internalType": "bytes32",
          "name": "_masterKeyCommitment",
          "type": "bytes32"
        },
        {
          "internalType": "uint256[]",
          "name": "_commitments",
          "type": "uint256[]"
        }
      ],
      "stateMutability": "nonpayable",
      "type": "constructor"
    },
    {
      "anonymous": false,
      "inputs": [
        {
          "indexed": true,
          "internalType": "address",
          "name": "player",
          "type": "address"
        },
        {
          "indexed": false,
          "internalType": "string",
          "name": "masterKey",
          "type": "string"
        },
        {
          "indexed": false,
          "internalType": "uint256",
          "name": "bonusAwarded",
          "type": "uint256"
        }
      ],
      "name": "MasterKeyRevealed",
      "type": "event"
    },
    {
      "anonymous": false,
      "inputs": [
        {
          "indexed": true,
          "internalType": "address",
          "name": "previousOwner",
          "type": "address"
        },
        {
          "indexed": true,
          "internalType": "address",
          "name": "newOwner",
          "type": "address"
        }
      ],
      "name": "OwnershipTransferred",
      "type": "event"
    },
    {
      "anonymous": false,
      "inputs": [
        {
          "indexed": true,
          "internalType": "address",
          "name": "player",
          "type": "address"
        },
        {
          "indexed": true,
          "internalType": "uint256",
          "name": "index",
          "type": "uint256"
        },
        {
          "indexed": false,
          "internalType": "uint256",
          "name": "points",
          "type": "uint256"
        }
      ],
      "name": "SubFlagProved",
      "type": "event"
    },
    {
      "inputs": [],
      "name": "N",
      "outputs": [
        {
          "internalType": "uint256",
          "name": "",
          "type": "uint256"
        }
      ],
      "stateMutability": "view",
      "type": "function"
    },
    {
      "inputs": [],
      "name": "basePointsPerFlag",
      "outputs": [
        {
          "internalType": "uint256",
          "name": "",
          "type": "uint256"
        }
      ],
      "stateMutability": "view",
      "type": "function"
    },
    {
      "inputs": [
        {
          "internalType": "uint256",
          "name": "",
          "type": "uint256"
        }
      ],
      "name": "commitments",
      "outputs": [
        {
          "internalType": "uint256",
          "name": "",
          "type": "uint256"
        }
      ],
      "stateMutability": "view",
      "type": "function"
    },
    {
      "inputs": [],
      "name": "finalBonus",
      "outputs": [
        {
          "internalType": "uint256",
          "name": "",
          "type": "uint256"
        }
      ],
      "stateMutability": "view",
      "type": "function"
    },
    {
      "inputs": [],
      "name": "getFinishedPlayers",
      "outputs": [
        {
          "internalType": "address[]",
          "name": "",
          "type": "address[]"
        }
      ],
      "stateMutability": "view",
      "type": "function"
    },
    {
      "inputs": [
        {
          "internalType": "address",
          "name": "player",
          "type": "address"
        }
      ],
      "name": "hasFinished",
      "outputs": [
        {
          "internalType": "bool",
          "name": "",
          "type": "bool"
        }
      ],
      "stateMutability": "view",
      "type": "function"
    },
    {
      "inputs": [
        {
          "internalType": "address",
          "name": "",
          "type": "address"
        }
      ],
      "name": "lastNonce",
      "outputs": [
        {
          "internalType": "uint256",
          "name": "",
          "type": "uint256"
        }
      ],
      "stateMutability": "view",
      "type": "function"
    },
    {
      "inputs": [],
      "name": "masterKeyCommitment",
      "outputs": [
        {
          "internalType": "bytes32",
          "name": "",
          "type": "bytes32"
        }
      ],
      "stateMutability": "view",
      "type": "function"
    },
    {
      "inputs": [],
      "name": "owner",
      "outputs": [
        {
          "internalType": "address",
          "name": "",
          "type": "address"
        }
      ],
      "stateMutability": "view",
      "type": "function"
    },
    {
      "inputs": [
        {
          "internalType": "address",
          "name": "",
          "type": "address"
        }
      ],
      "name": "progress",
      "outputs": [
        {
          "internalType": "uint256",
          "name": "",
          "type": "uint256"
        }
      ],
      "stateMutability": "view",
      "type": "function"
    },
    {
      "inputs": [],
      "name": "renounceOwnership",
      "outputs": [],
      "stateMutability": "nonpayable",
      "type": "function"
    },
    {
      "inputs": [
        {
          "internalType": "string",
          "name": "masterKey",
          "type": "string"
        },
        {
          "internalType": "uint256",
          "name": "nonce",
          "type": "uint256"
        }
      ],
      "name": "revealMasterKey",
      "outputs": [],
      "stateMutability": "nonpayable",
      "type": "function"
    },
    {
      "inputs": [
        {
          "internalType": "address",
          "name": "",
          "type": "address"
        }
      ],
      "name": "score",
      "outputs": [
        {
          "internalType": "uint256",
          "name": "",
          "type": "uint256"
        }
      ],
      "stateMutability": "view",
      "type": "function"
    },
    {
      "inputs": [
        {
          "internalType": "uint256",
          "name": "i",
          "type": "uint256"
        },
        {
          "internalType": "uint256",
          "name": "nonce",
          "type": "uint256"
        },
        {
          "internalType": "uint256[8]",
          "name": "proof",
          "type": "uint256[8]"
        },
        {
          "internalType": "uint256[]",
          "name": "pubSignals",
          "type": "uint256[]"
        }
      ],
      "name": "submitSubFlagProof",
      "outputs": [],
      "stateMutability": "nonpayable",
      "type": "function"
    },
    {
      "inputs": [
        {
          "internalType": "address",
          "name": "newOwner",
          "type": "address"
        }
      ],
      "name": "transferOwnership",
      "outputs": [],
      "stateMutability": "nonpayable",
      "type": "function"
    },
    {
      "inputs": [],
      "name": "verifier",
      "outputs": [
        {
          "internalType": "contract IVerifier",
          "name": "",
          "type": "address"
        }
      ],
      "stateMutability": "view",
      "type": "function"
    }
  ],
  "bytecode": "0x61012060405234801561001157600080fd5b50604051612298380380612298833981810160405281019061003391906104c0565b61004f6100446101bd60201b60201c565b6101c560201b60201c565b600073ffffffffffffffffffffffffffffffffffffffff168673ffffffffffffffffffffffffffffffffffffffff16036100be576040517f08c379a00000000000000000000000000000000000000000000000000000000081526004016100b5906105c6565b60405180910390fd5b84815114610101576040517f08c379a00000000000000000000000000000000000000000000000000000000081526004016100f890610632565b60405180910390fd5b8573ffffffffffffffffffffffffffffffffffffffff1660808173ffffffffffffffffffffffffffffffffffffffff16815250508460a081815250508360e081815250508261010081815250508160c0818152505060005b858110156101b157600182828151811061017657610175610652565b5b602002602001015190806001815401808255809150506001900390600052602060002001600090919091909150558080600101915050610159565b50505050505050610681565b600033905090565b60008060009054906101000a900473ffffffffffffffffffffffffffffffffffffffff169050816000806101000a81548173ffffffffffffffffffffffffffffffffffffffff021916908373ffffffffffffffffffffffffffffffffffffffff1602179055508173ffffffffffffffffffffffffffffffffffffffff168173ffffffffffffffffffffffffffffffffffffffff167f8be0079c531659141344cd1fd0a4f28419497f9722a3daafe3b4186f6b6457e060405160405180910390a35050565b6000604051905090565b600080fd5b600080fd5b600073ffffffffffffffffffffffffffffffffffffffff82169050919050565b60006102c88261029d565b9050919050565b6102d8816102bd565b81146102e357600080fd5b50565b6000815190506102f5816102cf565b92915050565b6000819050919050565b61030e816102fb565b811461031957600080fd5b50565b60008151905061032b81610305565b92915050565b6000819050919050565b61034481610331565b811461034f57600080fd5b50565b6000815190506103618161033b565b92915050565b600080fd5b6000601f19601f8301169050919050565b7f4e487b7100000000000000000000000000000000000000000000000000000000600052604160045260246000fd5b6103b58261036c565b810181811067ffffffffffffffff821117156103d4576103d361037d565b5b80604052505050565b60006103e7610289565b90506103f382826103ac565b919050565b600067ffffffffffffffff8211156104135761041261037d565b5b602082029050602081019050919050565b600080fd5b600061043c610437846103f8565b6103dd565b9050808382526020820190506020840283018581111561045f5761045e610424565b5b835b818110156104885780610474888261031c565b845260208401935050602081019050610461565b5050509392505050565b600082601f8301126104a7576104a6610367565b5b81516104b7848260208601610429565b91505092915050565b60008060008060008060c087890312156104dd576104dc610293565b5b60006104eb89828a016102e6565b96505060206104fc89828a0161031c565b955050604061050d89828a0161031c565b945050606061051e89828a0161031c565b935050608061052f89828a01610352565b92505060a087015167ffffffffffffffff8111156105505761054f610298565b5b61055c89828a01610492565b9150509295509295509295565b600082825260208201905092915050565b7f56657269666965722063616e6e6f74206265207a65726f206164647265737300600082015250565b60006105b0601f83610569565b91506105bb8261057a565b602082019050919050565b600060208201905081810360008301526105df816105a3565b9050919050565b7f4d69736d61746368206c656e6774680000000000000000000000000000000000600082015250565b600061061c600f83610569565b9150610627826105e6565b602082019050919050565b6000602082019050818103600083015261064b8161060f565b9050919050565b7f4e487b7100000000000000000000000000000000000000000000000000000000600052603260045260246000fd5b60805160a05160c05160e05161010051611b9b6106fd600039600081816108cd01528181610bbd0152610c820152600081816106cd0152818161077c015261085201526000818161082e0152610b5b015260008181610479015281816109090152610a8d0152600081816105a901526107ba0152611b9b6000f3fe608060405234801561001057600080fd5b50600436106101005760003560e01c80638da5cb5b11610097578063c9e525df11610066578063c9e525df1461029f578063da8589a2146102bd578063f2fde38b146102ed578063f93be6351461030957610100565b80638da5cb5b14610203578063a027eec214610221578063aee7e17614610251578063c0fd43b41461026f57610100565b8063776f3843116100d3578063776f384314610179578063803eb7a7146101a957806383a8eb6b146101c75780638d7301a9146101e557610100565b80631f6e52d6146101055780632b7ac3f31461012157806349ce89971461013f578063715018a61461016f575b600080fd5b61011f600480360381019061011a919061103f565b610325565b005b6101296107b8565b6040516101369190611148565b60405180910390f35b61015960048036038101906101549190611163565b6107dc565b604051610166919061119f565b60405180910390f35b610177610800565b005b610193600480360381019061018e91906111f8565b610814565b6040516101a0919061119f565b60405180910390f35b6101b161082c565b6040516101be919061123e565b60405180910390f35b6101cf610850565b6040516101dc919061119f565b60405180910390f35b6101ed610874565b6040516101fa9190611317565b60405180910390f35b61020b610885565b6040516102189190611348565b60405180910390f35b61023b600480360381019061023691906111f8565b6108ae565b604051610248919061137e565b60405180910390f35b6102596108cb565b604051610266919061119f565b60405180910390f35b610289600480360381019061028491906111f8565b6108ef565b604051610296919061119f565b60405180910390f35b6102a7610907565b6040516102b4919061119f565b60405180910390f35b6102d760048036038101906102d291906111f8565b61092b565b6040516102e4919061119f565b60405180910390f35b610307600480360381019061030291906111f8565b610943565b005b610323600480360381019061031e91906113ef565b6109c6565b005b600460003373ffffffffffffffffffffffffffffffffffffffff1673ffffffffffffffffffffffffffffffffffffffff1681526020019081526020016000205484116103a6576040517f08c379a000000000000000000000000000000000000000000000000000000000815260040161039d906114ac565b60405180910390fd5b83600460003373ffffffffffffffffffffffffffffffffffffffff1673ffffffffffffffffffffffffffffffffffffffff168152602001908152602001600020819055506001600260003373ffffffffffffffffffffffffffffffffffffffff1673ffffffffffffffffffffffffffffffffffffffff1681526020019081526020016000205461043691906114fb565b8514610477576040517f08c379a000000000000000000000000000000000000000000000000000000000815260040161046e9061157b565b60405180910390fd5b7f00000000000000000000000000000000000000000000000000000000000000008511156104da576040517f08c379a00000000000000000000000000000000000000000000000000000000081526004016104d1906115e7565b60405180910390fd5b60018282905014610520576040517f08c379a000000000000000000000000000000000000000000000000000000000815260040161051790611653565b60405180910390fd5b6001808661052e9190611673565b8154811061053f5761053e6116a7565b5b90600052602060002001548282600081811061055e5761055d6116a7565b5b90506020020135146105a5576040517f08c379a000000000000000000000000000000000000000000000000000000000815260040161059c90611722565b60405180910390fd5b60007f000000000000000000000000000000000000000000000000000000000000000073ffffffffffffffffffffffffffffffffffffffff16635067e8268585856040518463ffffffff1660e01b8152600401610604939291906117ce565b602060405180830381865afa158015610621573d6000803e3d6000fd5b505050506040513d601f19601f82011682018060405250810190610645919061182e565b905080610687576040517f08c379a000000000000000000000000000000000000000000000000000000000815260040161067e906118a7565b60405180910390fd5b85600260003373ffffffffffffffffffffffffffffffffffffffff1673ffffffffffffffffffffffffffffffffffffffff168152602001908152602001600020819055507f0000000000000000000000000000000000000000000000000000000000000000600360003373ffffffffffffffffffffffffffffffffffffffff1673ffffffffffffffffffffffffffffffffffffffff168152602001908152602001600020600082825461073a91906114fb565b92505081905550853373ffffffffffffffffffffffffffffffffffffffff167fa3a449076e8f5617e69806e5fa7a157af6c44290e107f94e5d0b9cbeb991345c7f00000000000000000000000000000000000000000000000000000000000000006040516107a8919061119f565b60405180910390a3505050505050565b7f000000000000000000000000000000000000000000000000000000000000000081565b600181815481106107ec57600080fd5b906000526020600020016000915090505481565b610808610cbe565b6108126000610d3c565b565b60036020528060005260406000206000915090505481565b7f000000000000000000000000000000000000000000000000000000000000000081565b7f000000000000000000000000000000000000000000000000000000000000000081565b60606108806005610e00565b905090565b60008060009054906101000a900473ffffffffffffffffffffffffffffffffffffffff16905090565b60006108c4826005610e2190919063ffffffff16565b9050919050565b7f000000000000000000000000000000000000000000000000000000000000000081565b60046020528060005260406000206000915090505481565b7f000000000000000000000000000000000000000000000000000000000000000081565b60026020528060005260406000206000915090505481565b61094b610cbe565b600073ffffffffffffffffffffffffffffffffffffffff168173ffffffffffffffffffffffffffffffffffffffff16036109ba576040517f08c379a00000000000000000000000000000000000000000000000000000000081526004016109b190611939565b60405180910390fd5b6109c381610d3c565b50565b600460003373ffffffffffffffffffffffffffffffffffffffff1673ffffffffffffffffffffffffffffffffffffffff168152602001908152602001600020548111610a47576040517f08c379a0000000000000000000000000000000000000000000000000000000008152600401610a3e906114ac565b60405180910390fd5b80600460003373ffffffffffffffffffffffffffffffffffffffff1673ffffffffffffffffffffffffffffffffffffffff168152602001908152602001600020819055507f0000000000000000000000000000000000000000000000000000000000000000600260003373ffffffffffffffffffffffffffffffffffffffff1673ffffffffffffffffffffffffffffffffffffffff1681526020019081526020016000205414610b2c576040517f08c379a0000000000000000000000000000000000000000000000000000000008152600401610b23906119a5565b60405180910390fd5b60008383604051602001610b41929190611a04565b6040516020818303038152906040528051906020012090507f00000000000000000000000000000000000000000000000000000000000000008114610bbb576040517f08c379a0000000000000000000000000000000000000000000000000000000008152600401610bb290611a69565b60405180910390fd5b7f0000000000000000000000000000000000000000000000000000000000000000600360003373ffffffffffffffffffffffffffffffffffffffff1673ffffffffffffffffffffffffffffffffffffffff1681526020019081526020016000206000828254610c2a91906114fb565b92505081905550610c45336005610e5190919063ffffffff16565b503373ffffffffffffffffffffffffffffffffffffffff167fea65dbd9eac0750ee4e85f758702f7a8a5534c5aaef91b9aaa3405b445ba055d85857f0000000000000000000000000000000000000000000000000000000000000000604051610cb093929190611ac7565b60405180910390a250505050565b610cc6610e81565b73ffffffffffffffffffffffffffffffffffffffff16610ce4610885565b73ffffffffffffffffffffffffffffffffffffffff1614610d3a576040517f08c379a0000000000000000000000000000000000000000000000000000000008152600401610d3190611b45565b60405180910390fd5b565b60008060009054906101000a900473ffffffffffffffffffffffffffffffffffffffff169050816000806101000a81548173ffffffffffffffffffffffffffffffffffffffff021916908373ffffffffffffffffffffffffffffffffffffffff1602179055508173ffffffffffffffffffffffffffffffffffffffff168173ffffffffffffffffffffffffffffffffffffffff167f8be0079c531659141344cd1fd0a4f28419497f9722a3daafe3b4186f6b6457e060405160405180910390a35050565b60606000610e1083600001610e89565b905060608190508092505050919050565b6000610e49836000018373ffffffffffffffffffffffffffffffffffffffff1660001b610ee5565b905092915050565b6000610e79836000018373ffffffffffffffffffffffffffffffffffffffff1660001b610f08565b905092915050565b600033905090565b606081600001805480602002602001604051908101604052809291908181526020018280548015610ed957602002820191906000526020600020905b815481526020019060010190808311610ec5575b50505050509050919050565b600080836001016000848152602001908152602001600020541415905092915050565b6000610f148383610ee5565b610f6d578260000182908060018154018082558091505060019003906000526020600020016000909190919091505582600001805490508360010160008481526020019081526020016000208190555060019050610f72565b600090505b92915050565b600080fd5b600080fd5b6000819050919050565b610f9581610f82565b8114610fa057600080fd5b50565b600081359050610fb281610f8c565b92915050565b600080fd5b600081905082602060080282011115610fd957610fd8610fb8565b5b92915050565b600080fd5b600080fd5b60008083601f840112610fff57610ffe610fdf565b5b8235905067ffffffffffffffff81111561101c5761101b610fe4565b5b60208301915083602082028301111561103857611037610fb8565b5b9250929050565b6000806000806000610160868803121561105c5761105b610f78565b5b600061106a88828901610fa3565b955050602061107b88828901610fa3565b945050604061108c88828901610fbd565b93505061014086013567ffffffffffffffff8111156110ae576110ad610f7d565b5b6110ba88828901610fe9565b92509250509295509295909350565b600073ffffffffffffffffffffffffffffffffffffffff82169050919050565b6000819050919050565b600061110e611109611104846110c9565b6110e9565b6110c9565b9050919050565b6000611120826110f3565b9050919050565b600061113282611115565b9050919050565b61114281611127565b82525050565b600060208201905061115d6000830184611139565b92915050565b60006020828403121561117957611178610f78565b5b600061118784828501610fa3565b91505092915050565b61119981610f82565b82525050565b60006020820190506111b46000830184611190565b92915050565b60006111c5826110c9565b9050919050565b6111d5816111ba565b81146111e057600080fd5b50565b6000813590506111f2816111cc565b92915050565b60006020828403121561120e5761120d610f78565b5b600061121c848285016111e3565b91505092915050565b6000819050919050565b61123881611225565b82525050565b6000602082019050611253600083018461122f565b92915050565b600081519050919050565b600082825260208201905092915050565b6000819050602082019050919050565b61128e816111ba565b82525050565b60006112a08383611285565b60208301905092915050565b6000602082019050919050565b60006112c482611259565b6112ce8185611264565b93506112d983611275565b8060005b8381101561130a5781516112f18882611294565b97506112fc836112ac565b9250506001810190506112dd565b5085935050505092915050565b6000602082019050818103600083015261133181846112b9565b905092915050565b611342816111ba565b82525050565b600060208201905061135d6000830184611339565b92915050565b60008115159050919050565b61137881611363565b82525050565b6000602082019050611393600083018461136f565b92915050565b60008083601f8401126113af576113ae610fdf565b5b8235905067ffffffffffffffff8111156113cc576113cb610fe4565b5b6020830191508360018202830111156113e8576113e7610fb8565b5b9250929050565b60008060006040848603121561140857611407610f78565b5b600084013567ffffffffffffffff81111561142657611425610f7d565b5b61143286828701611399565b9350935050602061144586828701610fa3565b9150509250925092565b600082825260208201905092915050565b7f4e6f6e6365207265706c61790000000000000000000000000000000000000000600082015250565b6000611496600c8361144f565b91506114a182611460565b602082019050919050565b600060208201905081810360008301526114c581611489565b9050919050565b7f4e487b7100000000000000000000000000000000000000000000000000000000600052601160045260246000fd5b600061150682610f82565b915061151183610f82565b9250828201905080821115611529576115286114cc565b5b92915050565b7f496e76616c6964207375622d666c616720696e64657800000000000000000000600082015250565b600061156560168361144f565b91506115708261152f565b602082019050919050565b6000602082019050818103600083015261159481611558565b9050919050565b7f4e6f2073756368207375622d666c616700000000000000000000000000000000600082015250565b60006115d160108361144f565b91506115dc8261159b565b602082019050919050565b60006020820190508181036000830152611600816115c4565b9050919050565b7f45787065637465642031207075625369676e616c000000000000000000000000600082015250565b600061163d60148361144f565b915061164882611607565b602082019050919050565b6000602082019050818103600083015261166c81611630565b9050919050565b600061167e82610f82565b915061168983610f82565b92508282039050818111156116a1576116a06114cc565b5b92915050565b7f4e487b7100000000000000000000000000000000000000000000000000000000600052603260045260246000fd5b7f4d69736d61746368656420636f6d6d69746d656e740000000000000000000000600082015250565b600061170c60158361144f565b9150611717826116d6565b602082019050919050565b6000602082019050818103600083015261173b816116ff565b9050919050565b82818337505050565b6117586101008383611742565b5050565b600082825260208201905092915050565b600080fd5b600061177e838561175c565b93507f07ffffffffffffffffffffffffffffffffffffffffffffffffffffffffffffff8311156117b1576117b061176d565b5b6020830292506117c2838584611742565b82840190509392505050565b6000610120820190506117e4600083018661174b565b8181036101008301526117f8818486611772565b9050949350505050565b61180b81611363565b811461181657600080fd5b50565b60008151905061182881611802565b92915050565b60006020828403121561184457611843610f78565b5b600061185284828501611819565b91505092915050565b7f496e76616c6964205a4b2070726f6f6600000000000000000000000000000000600082015250565b600061189160108361144f565b915061189c8261185b565b602082019050919050565b600060208201905081810360008301526118c081611884565b9050919050565b7f4f776e61626c653a206e6577206f776e657220697320746865207a65726f206160008201527f6464726573730000000000000000000000000000000000000000000000000000602082015250565b600061192360268361144f565b915061192e826118c7565b604082019050919050565b6000602082019050818103600083015261195281611916565b9050919050565b7f4e6f7420616c6c207375622d666c6167732070726f76656e0000000000000000600082015250565b600061198f60188361144f565b915061199a82611959565b602082019050919050565b600060208201905081810360008301526119be81611982565b9050919050565b600081905092915050565b82818337600083830152505050565b60006119eb83856119c5565b93506119f88385846119d0565b82840190509392505050565b6000611a118284866119df565b91508190509392505050565b7f57726f6e67206d6173746572206b657900000000000000000000000000000000600082015250565b6000611a5360108361144f565b9150611a5e82611a1d565b602082019050919050565b60006020820190508181036000830152611a8281611a46565b9050919050565b6000601f19601f8301169050919050565b6000611aa6838561144f565b9350611ab38385846119d0565b611abc83611a89565b840190509392505050565b60006040820190508181036000830152611ae2818587611a9a565b9050611af16020830184611190565b949350505050565b7f4f776e61626c653a2063616c6c6572206973206e6f7420746865206f776e6572600082015250565b6000611b2f60208361144f565b9150611b3a82611af9565b602082019050919050565b60006020820190508181036000830152611b5e81611b22565b905091905056fea2646970667358221220e31b36f336bf5cc0291be2ffd1aec37e5710703d7a6cc492f1c17b45cde814ac64736f6c634300081c0033",
  "linkReferences": {},
  "deployedLinkReferences": {}
}